:03004300020600B2
:03005300020600A2
:20060000020224000202520002023C000202B100020268000202C9000203190002031A00F1
:2006200002031B0002031C0002031D0002031E0002031F000203200002032100020322009E
:200640000203230002031A000203240002032500020326000203270002032800020329004E
:2006600002032A0002031A0002031A0002031A0002032B0002032C0002032D0002032E0028
:2006800002032F00020330000203310002033200020333000203340002033500020336009E
:1806A00002033700020338000203390002033A0002033B0002033C00CB
:2000CB0090E600E054E74410F090E60174E3F000000090E6027498F000000090E60374FE23
:2000EB00F000000090E6707480F000000090E609E4F000000090E61074A0F090E611F000E7
:20010B00000090E61274AAF000000090E61374A0F000000090E61474EAF000000090E6154E
:20012B0074E0F000000090E618E4F090E619F000000090E6187411F090E619F0000000907D
:20014B00E61AE4F090E61BF000000090E61A7409F090E61BF000000000000090E6917480C6
:20016B00F000000090E6917480F000000090E6957480F000000090E6957480F043AF019038
:20018B00E6047480F000000090E6047484F000000090E6047402F000000090E604E4F000F6
:2001AB0000002222D322D322D32290E6BAE0F508D32290E740E508F090E68AE4F090E68BA6
:2001CB0004F0D32290E6BAE0F509D32290E740E509F090E68AE4F090E68B04F0D322D322E0
:2001EB00D322D32290E6B9E0FFBFD0028005BFD124801190E604E04480FF00000090E6040A
:20020B00EFF0801390E604E0547FFF00000090E604EFF08002D322C322C0E0C082C083D289
:20022B00015391EF90E65D7401F0D083D082D0E032C0E0C082C0835391EF90E65D7404F0ED
:20024B00D083D082D0E032C0E0C082C0835391EF90E65D7402F0D083D082D0E032C0E0C0F4
:20026B0082C083C007C006C0D075D000851012851113AE12AF138E828F83A37402F0850EBC
:20028B0014850F15AE14AF158E828F83A37407F05391EF90E65D7410F0D0D0D006D007D0A9
:2002AB0083D082D0E032C0E0C082C083D2045391EF90E65D7408F0D083D082D0E032C0E048
:2002CB00C082C083C007C006C0D075D00090E680E030E724850E12850F13AE12AF138E823D
:2002EB008F83A37402F0851014851115AE14AF158E828F83A37407F05391EF90E65D742094
:20030B00F0D0D0D006D007D083D082D0E0323232323232323232323232323232323232328A
:12032B003232323232323232323232323232323232323C
:20033D00AE82AF8390E600E05418600280168E048F050CBC00010DEDC313CC13CCFD8C068B
:20035D008D07801890E600E05418FDBD100E8E048F05EC2CFCED33FD8C068D078E048F0517
:17037D001EBEFF011FEC4D600DC007C006120E7DD006D00780E62269
:110E7D007400F58690FDA57C05A3E582458370F92265
:2003940030000A90E680E043E00AF0800890E680E043E008F09005DC12033D90E65D74FF9A
:1103B400F090E65FF05391EF90E680E053E0F7F0229E
:20E000001201000200000040B40404100000010200010A06000200000040010009022E004F
:20E0200001010080320904000004FF00000007050202000400070504020002000705860260
:20E040000004000705880200020009022E0001010080320904000004FF0000000705020217
:20E060004000000705040240000007058602400000070588024000000403090410034300FA
:1CE080007900700072006500730073000E0345005A002D00550053004200000017
:0400000002006F3259
:01000B0032C2
:0100130032BA
:01001B0032B2
:0100230032AA
:01002B0032A2
:03003300020B8F2E
:0300C800020036FD
:030036000206BD02
:2006BD00C204C202C203C2011200CB750A00750BE0750C12750DE0750E1C750FE075104A88
:2006DD007511E07516787517E07E0074E0FF54C070030207A2751C00751DE07C9A7DE07A35
:2006FD00007BE0ECC39AFCED9BFD74022CFCE43DFDE4F518F519C3E5189CE5199D5032C0C4
:20071D0004C005A818A919E4FE748028FAE439FBAC1CAD1DE82CF582E93DF583E0FF8A82BB
:20073D008B83F00518E4B518020519D005D00480C5750A80750B007E007FE0EE2480FEEFE7
:20075D0034FFFFE50CC39EF50CE50D9FF50DE512C39EF512E5139FF513E514C39EF514E51E
:20077D00159FF515E50EC39EF50EE50F9FF50FE510C39EF510E5119FF511E516C39EF51653
:20079D00E5179FF517D2E843D82090E668E043E009F090E65CE043E03DF0D2AF90E680E06D
:2007BD0020E105D20012039490E680E053E0F7F0538EF8C2041201AE30010512081CC2011C
:2007DD003004F21201AF50EDC204120E8E20021C90E682E030E70790E682E020E1EC90E6F4
:2007FD0082E030E60790E682E020E0DE120E051201B180C190E50DE030E402C322D322909B
:20081D00E6B9E0FF24F45003020B79EF240A83F582EF241083F583E4731BD479BD79794E5B
:20083D0079150F030909090B0A0B0B080B090909091201B34003020B8690E6BBE0FFBF0112
:20085D00028017BF02028040BF03028059BF06028017BF070280400208F890E6B3E50BF0D1
:20087D0090E6B4E50AF0020B86120811500F90E6B3E50DF090E6B4E50CF0020B8690E6A076
:20089D00E043E001F0020B8690E6B3E513F090E6B4E512F0020B8690E6B3E515F090E6B4C2
:2008BD00E514F0020B8690E6BAE0F582120B93AE82AF837D008E028F038D04EE4F60118A9E
:2008DD00068B0790E6B3EFF090E6B4EAF0020B8690E6A0E043E001F0020B8690E6A0E043EE
:2008FD00E001F0020B861201D7020B861201CF020B861201B5020B861201BD020B861201B4
:20091D00E94003020B8690E6B8E0FFBF8002800DBF8102802DBF8202803E0209C9A202E4D4
:20093D003325E0FFA203E433FE420790E740EFF090E741E4F090E68AF090E68B7402F002E5
:20095D000B8690E740E4F090E741F090E68AF090E68B7402F0020B8690E6BCE0FF53077EE3
:20097D007E0090E6BCE0FDC374809DE433FD7C004207EC4206EF2473F582EE340EF583E4E3
:20099D0093FF7E0074A12FFF74E63EFE8F828E83E0FF53070190E740EFF090E741E4F09043
:2009BD00E68AF090E68B7402F0020B8690E6A0E043E001F0020B861201EB4003020B8690BF
:2009DD00E6B8E0FF6008BF0202801B020B8690E6BAE0FFBF0105C202020B8690E6A0E043C0
:2009FD00E001F0020B8690E6BAE06003020AB290E6BCE0FF53077E7E0090E6BCE0FDC37498
:200A1D00809DE4337C004207EC4206EF2473F582EE340EF583E493FF7E0074A12FFF74E656
:200A3D003EFE90E6BCE0FD53057E7C0090E6BCE0FBC374809BE433FB7A004205EA4204EDAD
:200A5D002473F582EC340EF583E493FD7C0074A12DFD74E63CFC8D828C83E0FD5305FE8F24
:200A7D00828E83EDF090E6BCE0FF530780E423CFC423541F6FCF541FCF6FCF30E40244E0D6
:200A9D0090E6BCE0FE740F5E90E6832FF0E043E020F0020B8690E6A0E043E001F0020B86ED
:200ABD001201ED4003020B8690E6B8E0FF6008BF02028026020B6F90E6BAE0FFBF0105D243
:200ADD0002020B8690E6BAE0FFBF0203020B8690E6A0E043E001F0020B8690E6BCE0FF53FD
:200AFD00077E7E0090E6BCE0FDC374809DE4337C004207EC4206EF2473F582EE340EF583BE
:200B1D00E493FF7E0074A12FFF74E63EFE90E6BCE0FD53057E7C0090E6BCE0FBC374809B2B
:200B3D00E433FB7A004205EA4204ED2473F582EC340EF583E493FD7C0074A12DFD74E63C2F
:200B5D00FC8D828C83E0FD4305018F828E83EDF0801790E6A0E043E001F0800D1201EF50B9
:160B7D000890E6A0E043E001F090E6A0E043E080F02253D8EF3259
:0A0E73000001020203030404050558
:200B9300AF82AD16AE178D828E83A3E0FCBC03238F041FEC70058D828E83228D038E048D04
:170BB300828E83E0F97A00E92BFBEA3CFC8B058C0680D390000022ED
:200BCA00752600D2E9D2AF22AF8290E678E020E6F9C2E990E678E043E080F08F06EE2E90C7
:200BEA00E679F090E678E030E0F990E678E043E040F090E678E020E6F990E678E030E1D325
:200C0A00D2E922AF8290E678E020E6F9E526702490E678E043E080F0EF2F90E679F0852D40
:200C2A0021AD2EAE2F7F008D228E238F248F25752601D322C322AF8290E678E020E6F9E532
:200C4A0026702890E678E043E080F0EF2FFF90E67974014FF0852D21AD2EAE2F7F008D22F2
:200C6A008E238F248F25752603D322C322C0E0C0F0C082C083C007C006C005C004C003C06C
:200C8A0002C0D075D00090E678E030E206752606020D9990E678E020E10D7402B526028095
:200CAA0006752607020D99AF26BF01028019BF02028074BF0302803FBF0503020D89BF0949
:200CCA0003020D96020D99AD22AE23AF24E525FC04FB8B25EC2DFDE43EFE8D828E838FF0BD
:200CEA00120E53FD90E679F0EBB521028003020D99752605020D99E5252522FDE43523FEDD
:200D0A00AF2490E679E0FC8D828E838FF0120E387526027401B521028003020D9990E67831
:200D2A00E043E020F08068AE217F00EE24FEFCEF34FFFDAA257B00EAB5040CEBB5050890FF
:200D4A00E678E043E020F01EBEFF011FEAB5060FEBB5070B90E678E043E040F0752600E516
:200D6A00252522FDE43523FEAF2490E679E0FC8D828E838FF0120E38E52504F525801090E9
:200D8A00E678E043E040F075260080037526005391DFD0D0D002D003D004D005D006D007A1
:090DAA00D083D082D0F0D0E032F9
:200DB30085272D85282E85292F120C40AF26BF0002800ABF0602800CBF07F18002D322751B
:200DD3002600D322752600D322852A2D852B2E852C2F120C0DAF26BF0002800ABF06028029
:120DF3000CBF07F18002D322752600D322752600D32294
:200E050090E682E030E00790E682E020E60E90E682E030E11D90E682E030E71690E680E011
:130E250043E001F090001412033D90E680E053E0FEF02297
:140E8E0090E682E044C0F090E681F0438701000000000022B0
:06009E00E478FFF6D8FD36
:20007C007900E94400601B7A00900E7D780175A000E493F2A308B8000205A0D9F4DAF2759F
:02009C00A0FFC3
:1B0E380020F71130F6138883A88220F509F6A8837583002280FEF280F5F022B9
:2000A4007800E84400600A790175A000E4F309D8FC7800E84400600C7900900001E4F0A35A
:0400C400D8FCD9FA91
:0D006F0075812F120E6FE5826003020036CE
:1C0E530020F71430F6148883A88220F507E6A88375830022E280F7E49322E022AE
:040E6F007582002266
:00000001FF
