:03004300020600B2
:03005300020600A2
:200600000201C5000201F3000201DD00020252000202090002026A000202BA000202BB00EE
:200620000202BC000202BD000202BE000202BF000202C0000202C1000202C2000202C3009E
:200640000202C4000202BB000202C5000202C6000202C7000202C8000202C9000202CA004E
:200660000202CB000202BB000202BB000202BB000202CC000202CD000202CE000202CF0028
:200680000202D0000202D1000202D2000202D3000202D4000202D5000202D6000202D7009E
:1806A0000202D8000202D9000202DA000202DB000202DC000202DD000B
:2000CB0090E600E054E74410F090E60174E3F000000090E602E4F000000090E6037490F0C9
:2000EB0000000090E609E4F000000090E61074A0F090E611F000000090E61274AAF000000B
:20010B000090E61374A0F000000090E61474EAF000000090E61574E0F00000000000009010
:20012B00E6917480F000000090E6917480F000000090E6957480F000000090E6957480F090
:20014B0043AF012222D322D322D32290E6BAE0F508D32290E740E508F090E68AE4F090E69E
:20016B008B04F0D32290E6BAE0F509D32290E740E509F090E68AE4F090E68B04F0D322D3D7
:20018B0022D322D32290E6B9E0FFBFD0028005BFD124801190E604E04480FF00000090E64C
:2001AB0004EFF0801390E604E0547FFF00000090E604EFF08002D322C322C0E0C082C083B8
:2001CB00D2015391EF90E65D7401F0D083D082D0E032C0E0C082C0835391EF90E65D74046C
:2001EB00F0D083D082D0E032C0E0C082C0835391EF90E65D7402F0D083D082D0E032C0E025
:20020B00C082C083C007C006C0D075D000851012851113AE12AF138E828F83A37402F0856A
:20022B000E14850F15AE14AF158E828F83A37407F05391EF90E65D7410F0D0D0D006D007CB
:20024B00D083D082D0E032C0E0C082C083D2045391EF90E65D7408F0D083D082D0E032C0B8
:20026B00E0C082C083C007C006C0D075D00090E680E030E724850E12850F13AE12AF138E3F
:20028B00828F83A37402F0851014851115AE14AF158E828F83A37407F05391EF90E65D7492
:2002AB0020F0D0D0D006D007D083D082D0E0323232323232323232323232323232323232FD
:1302CB00323232323232323232323232323232323232326A
:2002DE00AE82AF8390E600E05418600280168E048F050CBC00010DEDC313CC13CCFD8C06EB
:2002FE008D07801890E600E05418FDBD100E8E048F05EC2CFCED33FD8C068D078E048F0577
:17031E001EBEFF011FEC4D600DC007C006120E7ED006D00780E622C7
:110E7E007400F58690FDA57C05A3E582458370F92264
:2003350030000A90E680E043E00AF0800890E680E043E008F09005DC1202DE90E65D74FF59
:11035500F090E65FF05391EF90E680E053E0F7F022FD
:20E000001201000200000040B40404100000010200010A06000200000040010009022E004F
:20E0200001010080320904000004FF00000007050202000400070504020002000705860260
:20E040000004000705880200020009022E0001010080320904000004FF0000000705020217
:20E060004000000705040240000007058602400000070588024000000403090410034300FA
:1CE080007900700072006500730073000E0345005A002D00550053004200000017
:0400000002006F3259
:01000B0032C2
:0100130032BA
:01001B0032B2
:0100230032AA
:01002B0032A2
:03003300020B902D
:0300C800020036FD
:030036000206BE01
:2006BE00C204C202C203C2011200CB750A00750BE0750C12750DE0750E1C750FE075104A87
:2006DE007511E07516787517E07E0074E0FF54C070030207A3751C00751DE07C9A7DE07A33
:2006FE00007BE0ECC39AFCED9BFD74022CFCE43DFDE4F518F519C3E5189CE5199D5032C0C3
:20071E0004C005A818A919E4FE748028FAE439FBAC1CAD1DE82CF582E93DF583E0FF8A82BA
:20073E008B83F00518E4B518020519D005D00480C5750A80750B007E007FE0EE2480FEEFE6
:20075E0034FFFFE50CC39EF50CE50D9FF50DE512C39EF512E5139FF513E514C39EF514E51D
:20077E00159FF515E50EC39EF50EE50F9FF50FE510C39EF510E5119FF511E516C39EF51652
:20079E00E5179FF517D2E843D82090E668E043E009F090E65CE043E03DF0D2AF90E680E06C
:2007BE0020E105D20012033590E680E053E0F7F0538EF8C20412014F30010512081DC201D8
:2007DE003004F212015050EDC204120E8F20021C90E682E030E70790E682E020E1EC90E651
:2007FE0082E030E60790E682E020E0DE120E0612015280C190E50DE030E402C322D32290F8
:20081E00E6B9E0FF24F45003020B7AEF240A83F582EF241083F583E4731CD57ABE7A7A4F52
:20083E007A1610040A09090B0A0B0B080B090909091201544003020B8790E6BBE0FFBF016A
:20085E00028017BF02028040BF03028059BF06028017BF070280400208F990E6B3E50BF0CF
:20087E0090E6B4E50AF0020B87120812500F90E6B3E50DF090E6B4E50CF0020B8790E6A072
:20089E00E043E001F0020B8790E6B3E513F090E6B4E512F0020B8790E6B3E515F090E6B4BF
:2008BE00E514F0020B8790E6BAE0F582120B94AE82AF837D008E028F038D04EE4F60118A9B
:2008DE00068B0790E6B3EFF090E6B4EAF0020B8790E6A0E043E001F0020B8790E6A0E043EB
:2008FE00E001F0020B87120178020B87120170020B87120156020B8712015E020B8712012A
:20091E008A4003020B8790E6B8E0FFBF8002800DBF8102802DBF8202803E0209CAA202E430
:20093E003325E0FFA203E433FE420790E740EFF090E741E4F090E68AF090E68B7402F002E4
:20095E000B8790E740E4F090E741F090E68AF090E68B7402F0020B8790E6BCE0FF53077EE0
:20097E007E0090E6BCE0FDC374809DE433FD7C004207EC4206EF2474F582EE340EF583E4E1
:20099E0093FF7E0074A12FFF74E63EFE8F828E83E0FF53070190E740EFF090E741E4F09042
:2009BE00E68AF090E68B7402F0020B8790E6A0E043E001F0020B8712018C4003020B87901A
:2009DE00E6B8E0FF6008BF0202801B020B8790E6BAE0FFBF0105C202020B8790E6A0E043BD
:2009FE00E001F0020B8790E6BAE06003020AB390E6BCE0FF53077E7E0090E6BCE0FDC37495
:200A1E00809DE4337C004207EC4206EF2474F582EE340EF583E493FF7E0074A12FFF74E654
:200A3E003EFE90E6BCE0FD53057E7C0090E6BCE0FBC374809BE433FB7A004205EA4204EDAC
:200A5E002474F582EC340EF583E493FD7C0074A12DFD74E63CFC8D828C83E0FD5305FE8F22
:200A7E00828E83EDF090E6BCE0FF530780E423CFC423541F6FCF541FCF6FCF30E40244E0D5
:200A9E0090E6BCE0FE740F5E90E6832FF0E043E020F0020B8790E6A0E043E001F0020B87EA
:200ABE0012018E4003020B8790E6B8E0FF6008BF02028026020B7090E6BAE0FFBF0105D29F
:200ADE0002020B8790E6BAE0FFBF0203020B8790E6A0E043E001F0020B8790E6BCE0FF53F9
:200AFE00077E7E0090E6BCE0FDC374809DE4337C004207EC4206EF2474F582EE340EF583BC
:200B1E00E493FF7E0074A12FFF74E63EFE90E6BCE0FD53057E7C0090E6BCE0FBC374809B2A
:200B3E00E433FB7A004205EA4204ED2474F582EC340EF583E493FD7C0074A12DFD74E63C2D
:200B5E00FC8D828C83E0FD4305018F828E83EDF0801790E6A0E043E001F0800D1201905017
:160B7E000890E6A0E043E001F090E6A0E043E080F02253D8EF3258
:0A0E74000001020203030404050557
:200B9400AF82AD16AE178D828E83A3E0FCBC03238F041FEC70058D828E83228D038E048D03
:170BB400828E83E0F97A00E92BFBEA3CFC8B058C0680D390000022EC
:200BCB00752600D2E9D2AF22AF8290E678E020E6F9C2E990E678E043E080F08F06EE2E90C6
:200BEB00E679F090E678E030E0F990E678E043E040F090E678E020E6F990E678E030E1D324
:200C0B00D2E922AF8290E678E020E6F9E526702490E678E043E080F0EF2F90E679F0852D3F
:200C2B0021AD2EAE2F7F008D228E238F248F25752601D322C322AF8290E678E020E6F9E531
:200C4B0026702890E678E043E080F0EF2FFF90E67974014FF0852D21AD2EAE2F7F008D22F1
:200C6B008E238F248F25752603D322C322C0E0C0F0C082C083C007C006C005C004C003C06B
:200C8B0002C0D075D00090E678E030E206752606020D9A90E678E020E10D7402B526028093
:200CAB0006752607020D9AAF26BF01028019BF02028074BF0302803FBF0503020D8ABF0946
:200CCB0003020D97020D9AAD22AE23AF24E525FC04FB8B25EC2DFDE43EFE8D828E838FF0BA
:200CEB00120E54FD90E679F0EBB521028003020D9A752605020D9AE5252522FDE43523FED9
:200D0B00AF2490E679E0FC8D828E838FF0120E397526027401B521028003020D9A90E6782E
:200D2B00E043E020F08068AE217F00EE24FEFCEF34FFFDAA257B00EAB5040CEBB5050890FE
:200D4B00E678E043E020F01EBEFF011FEAB5060FEBB5070B90E678E043E040F0752600E515
:200D6B00252522FDE43523FEAF2490E679E0FC8D828E838FF0120E39E52504F525801090E7
:200D8B00E678E043E040F075260080037526005391DFD0D0D002D003D004D005D006D007A0
:090DAB00D083D082D0F0D0E032F8
:200DB40085272D85282E85292F120C41AF26BF0002800ABF0602800CBF07F18002D3227519
:200DD4002600D322752600D322852A2D852B2E852C2F120C0EAF26BF0002800ABF06028027
:120DF4000CBF07F18002D322752600D322752600D32293
:200E060090E682E030E00790E682E020E60E90E682E030E11D90E682E030E71690E680E010
:130E260043E001F09000141202DE90E680E053E0FEF022F6
:140E8F0090E682E044C0F090E681F0438701000000000022AF
:06009E00E478FFF6D8FD36
:20007C007900E94400601B7A00900E7E780175A000E493F2A308B8000205A0D9F4DAF2759E
:02009C00A0FFC3
:1B0E390020F71130F6138883A88220F509F6A8837583002280FEF280F5F022B8
:2000A4007800E84400600A790175A000E4F309D8FC7800E84400600C7900900001E4F0A35A
:0400C400D8FCD9FA91
:0D006F0075812F120E70E5826003020036CD
:1C0E540020F71430F6148883A88220F507E6A88375830022E280F7E49322E022AD
:040E70007582002265
:00000001FF
